{
  "contractName": "Collector",
  "abi": [
    {
      "inputs": [
        {
          "internalType": "address",
          "name": "clEthUsd",
          "type": "address"
        }
      ],
      "stateMutability": "nonpayable",
      "type": "constructor"
    },
    {
      "inputs": [],
      "name": "noEthDeposited",
      "type": "error"
    },
    {
      "inputs": [],
      "name": "noEthSent",
      "type": "error"
    },
    {
      "inputs": [],
      "name": "noEthToWithdraw",
      "type": "error"
    },
    {
      "anonymous": false,
      "inputs": [
        {
          "indexed": true,
          "internalType": "address",
          "name": "previousOwner",
          "type": "address"
        },
        {
          "indexed": true,
          "internalType": "address",
          "name": "newOwner",
          "type": "address"
        }
      ],
      "name": "OwnershipTransferred",
      "type": "event"
    },
    {
      "inputs": [],
      "name": "ethUsdOracle",
      "outputs": [
        {
          "internalType": "contract AggregatorV3Interface",
          "name": "",
          "type": "address"
        }
      ],
      "stateMutability": "view",
      "type": "function"
    },
    {
      "inputs": [],
      "name": "oracleEthUsdPrice",
      "outputs": [
        {
          "internalType": "address",
          "name": "",
          "type": "address"
        }
      ],
      "stateMutability": "view",
      "type": "function"
    },
    {
      "inputs": [],
      "name": "owner",
      "outputs": [
        {
          "internalType": "address",
          "name": "",
          "type": "address"
        }
      ],
      "stateMutability": "view",
      "type": "function"
    },
    {
      "inputs": [],
      "name": "ownerEthAmountToWithdraw",
      "outputs": [
        {
          "internalType": "uint256",
          "name": "",
          "type": "uint256"
        }
      ],
      "stateMutability": "view",
      "type": "function"
    },
    {
      "inputs": [],
      "name": "renounceOwnership",
      "outputs": [],
      "stateMutability": "nonpayable",
      "type": "function"
    },
    {
      "inputs": [
        {
          "internalType": "address",
          "name": "newOwner",
          "type": "address"
        }
      ],
      "name": "transferOwnership",
      "outputs": [],
      "stateMutability": "nonpayable",
      "type": "function"
    },
    {
      "inputs": [],
      "name": "usdDecimals",
      "outputs": [
        {
          "internalType": "uint256",
          "name": "",
          "type": "uint256"
        }
      ],
      "stateMutability": "view",
      "type": "function"
    },
    {
      "inputs": [
        {
          "internalType": "address",
          "name": "user",
          "type": "address"
        }
      ],
      "name": "userEthDeposit",
      "outputs": [
        {
          "internalType": "uint256",
          "name": "amount",
          "type": "uint256"
        }
      ],
      "stateMutability": "view",
      "type": "function"
    },
    {
      "stateMutability": "payable",
      "type": "receive"
    },
    {
      "inputs": [],
      "name": "getLastPrice",
      "outputs": [
        {
          "internalType": "int256",
          "name": "",
          "type": "int256"
        }
      ],
      "stateMutability": "view",
      "type": "function"
    },
    {
      "inputs": [],
      "name": "getPriceDecimals",
      "outputs": [
        {
          "internalType": "uint256",
          "name": "",
          "type": "uint256"
        }
      ],
      "stateMutability": "view",
      "type": "function"
    },
    {
      "inputs": [
        {
          "internalType": "address",
          "name": "user",
          "type": "address"
        }
      ],
      "name": "convertEthInUSD",
      "outputs": [
        {
          "internalType": "uint256",
          "name": "",
          "type": "uint256"
        }
      ],
      "stateMutability": "view",
      "type": "function"
    },
    {
      "inputs": [
        {
          "internalType": "uint256",
          "name": "usdAmount",
          "type": "uint256"
        }
      ],
      "name": "convertUSDInEth",
      "outputs": [
        {
          "internalType": "uint256",
          "name": "",
          "type": "uint256"
        }
      ],
      "stateMutability": "view",
      "type": "function"
    },
    {
      "inputs": [],
      "name": "userETHWithdraw",
      "outputs": [],
      "stateMutability": "nonpayable",
      "type": "function"
    }
  ],
  "bytecode": "0x60806040523480156200001157600080fd5b506040516200148838038062001488833981810160405281019062000037919062000238565b620000576200004b6200010260201b60201c565b6200010a60201b60201c565b80600260006101000a81548173ffffffffffffffffffffffffffffffffffffffff021916908373ffffffffffffffffffffffffffffffffffffffff160217905550600260009054906101000a900473ffffffffffffffffffffffffffffffffffffffff16600360006101000a81548173ffffffffffffffffffffffffffffffffffffffff021916908373ffffffffffffffffffffffffffffffffffffffff160217905550506200026a565b600033905090565b60008060009054906101000a900473ffffffffffffffffffffffffffffffffffffffff169050816000806101000a81548173ffffffffffffffffffffffffffffffffffffffff021916908373ffffffffffffffffffffffffffffffffffffffff1602179055508173ffffffffffffffffffffffffffffffffffffffff168173ffffffffffffffffffffffffffffffffffffffff167f8be0079c531659141344cd1fd0a4f28419497f9722a3daafe3b4186f6b6457e060405160405180910390a35050565b600080fd5b600073ffffffffffffffffffffffffffffffffffffffff82169050919050565b60006200020082620001d3565b9050919050565b6200021281620001f3565b81146200021e57600080fd5b50565b600081519050620002328162000207565b92915050565b600060208284031215620002515762000250620001ce565b5b6000620002618482850162000221565b91505092915050565b61120e806200027a6000396000f3fe6080604052600436106100c65760003560e01c80638a97f9c91161007f578063d8cf24fd11610059578063d8cf24fd1461026e578063de2a8efd14610299578063e8769f10146102d6578063f2fde38b146102ed576100d6565b80638a97f9c9146101ed5780638da5cb5b146102185780638e70a79914610243576100d6565b806306914e11146100db5780631b30aafc14610118578063243da2ba146101435780635ba8ba191461016e57806366a4b6c0146101ab578063715018a6146101d6576100d6565b366100d6576100d433610316565b005b600080fd5b3480156100e757600080fd5b5061010260048036038101906100fd9190610ad6565b6103a9565b60405161010f9190610b1c565b60405180910390f35b34801561012457600080fd5b5061012d6103c1565b60405161013a9190610b1c565b60405180910390f35b34801561014f57600080fd5b5061015861045c565b6040516101659190610b1c565b60405180910390f35b34801561017a57600080fd5b5061019560048036038101906101909190610ad6565b610462565b6040516101a29190610b1c565b60405180910390f35b3480156101b757600080fd5b506101c0610557565b6040516101cd9190610b1c565b60405180910390f35b3480156101e257600080fd5b506101eb61055c565b005b3480156101f957600080fd5b50610202610570565b60405161020f9190610b96565b60405180910390f35b34801561022457600080fd5b5061022d610596565b60405161023a9190610bc0565b60405180910390f35b34801561024f57600080fd5b506102586105bf565b6040516102659190610bc0565b60405180910390f35b34801561027a57600080fd5b506102836105e5565b6040516102909190610bf4565b60405180910390f35b3480156102a557600080fd5b506102c060048036038101906102bb9190610c3b565b610686565b6040516102cd9190610b1c565b60405180910390f35b3480156102e257600080fd5b506102eb6106fd565b005b3480156102f957600080fd5b50610314600480360381019061030f9190610ad6565b6108a6565b005b60003403610350576040517f1e61837f00000000000000000000000000000000000000000000000000000000815260040160405180910390fd5b34600460008373ffffffffffffffffffffffffffffffffffffffff1673ffffffffffffffffffffffffffffffffffffffff168152602001908152602001600020600082825461039f9190610c97565b9250508190555050565b60046020528060005260406000206000915090505481565b6000600360009054906101000a900473ffffffffffffffffffffffffffffffffffffffff1673ffffffffffffffffffffffffffffffffffffffff1663313ce5676040518163ffffffff1660e01b8152600401602060405180830381865afa158015610430573d6000803e3d6000fd5b505050506040513d601f19601f820116820180604052508101906104549190610d04565b60ff16905090565b60015481565b600080600090506000600460008573ffffffffffffffffffffffffffffffffffffffff1673ffffffffffffffffffffffffffffffffffffffff16815260200190815260200160002054111561054e5760006104bb6103c1565b905060006104c76105e5565b9050600060028360126104da9190610c97565b6104e49190610d31565b905080600a6104f39190610e98565b82600460008973ffffffffffffffffffffffffffffffffffffffff1673ffffffffffffffffffffffffffffffffffffffff1681526020019081526020016000205461053e9190610ee3565b6105489190610f54565b93505050505b80915050919050565b600281565b610564610929565b61056e60006109a7565b565b600360009054906101000a900473ffffffffffffffffffffffffffffffffffffffff1681565b60008060009054906101000a900473ffffffffffffffffffffffffffffffffffffffff16905090565b600260009054906101000a900473ffffffffffffffffffffffffffffffffffffffff1681565b600080600360009054906101000a900473ffffffffffffffffffffffffffffffffffffffff1673ffffffffffffffffffffffffffffffffffffffff1663feaf968c6040518163ffffffff1660e01b815260040160a060405180830381865afa158015610655573d6000803e3d6000fd5b505050506040513d601f19601f820116820180604052508101906106799190611008565b5050509150508091505090565b6000806000905060008311156106f45760006106a06103c1565b905060006106ac6105e5565b9050600060028360126106bf9190610c97565b6106c99190610d31565b90508181600a6106d99190610e98565b876106e49190610ee3565b6106ee9190610f54565b93505050505b80915050919050565b6000600460003373ffffffffffffffffffffffffffffffffffffffff1673ffffffffffffffffffffffffffffffffffffffff1681526020019081526020016000205403610776576040517f18306ed400000000000000000000000000000000000000000000000000000000815260040160405180910390fd5b6000600460003373ffffffffffffffffffffffffffffffffffffffff1673ffffffffffffffffffffffffffffffffffffffff1681526020019081526020016000205490506000600460003373ffffffffffffffffffffffffffffffffffffffff1673ffffffffffffffffffffffffffffffffffffffff1681526020019081526020016000208190555060003373ffffffffffffffffffffffffffffffffffffffff1682604051610825906110b4565b60006040518083038185875af1925050503d8060008114610862576040519150601f19603f3d011682016040523d82523d6000602084013e610867565b606091505b50509050806108a2576040517f1e61837f00000000000000000000000000000000000000000000000000000000815260040160405180910390fd5b5050565b6108ae610929565b600073ffffffffffffffffffffffffffffffffffffffff168173ffffffffffffffffffffffffffffffffffffffff160361091d576040517f08c379a00000000000000000000000000000000000000000000000000000000081526004016109149061114c565b60405180910390fd5b610926816109a7565b50565b610931610a6b565b73ffffffffffffffffffffffffffffffffffffffff1661094f610596565b73ffffffffffffffffffffffffffffffffffffffff16146109a5576040517f08c379a000000000000000000000000000000000000000000000000000000000815260040161099c906111b8565b60405180910390fd5b565b60008060009054906101000a900473ffffffffffffffffffffffffffffffffffffffff169050816000806101000a81548173ffffffffffffffffffffffffffffffffffffffff021916908373ffffffffffffffffffffffffffffffffffffffff1602179055508173ffffffffffffffffffffffffffffffffffffffff168173ffffffffffffffffffffffffffffffffffffffff167f8be0079c531659141344cd1fd0a4f28419497f9722a3daafe3b4186f6b6457e060405160405180910390a35050565b600033905090565b600080fd5b600073ffffffffffffffffffffffffffffffffffffffff82169050919050565b6000610aa382610a78565b9050919050565b610ab381610a98565b8114610abe57600080fd5b50565b600081359050610ad081610aaa565b92915050565b600060208284031215610aec57610aeb610a73565b5b6000610afa84828501610ac1565b91505092915050565b6000819050919050565b610b1681610b03565b82525050565b6000602082019050610b316000830184610b0d565b92915050565b6000819050919050565b6000610b5c610b57610b5284610a78565b610b37565b610a78565b9050919050565b6000610b6e82610b41565b9050919050565b6000610b8082610b63565b9050919050565b610b9081610b75565b82525050565b6000602082019050610bab6000830184610b87565b92915050565b610bba81610a98565b82525050565b6000602082019050610bd56000830184610bb1565b92915050565b6000819050919050565b610bee81610bdb565b82525050565b6000602082019050610c096000830184610be5565b92915050565b610c1881610b03565b8114610c2357600080fd5b50565b600081359050610c3581610c0f565b92915050565b600060208284031215610c5157610c50610a73565b5b6000610c5f84828501610c26565b91505092915050565b7f4e487b7100000000000000000000000000000000000000000000000000000000600052601160045260246000fd5b6000610ca282610b03565b9150610cad83610b03565b9250828201905080821115610cc557610cc4610c68565b5b92915050565b600060ff82169050919050565b610ce181610ccb565b8114610cec57600080fd5b50565b600081519050610cfe81610cd8565b92915050565b600060208284031215610d1a57610d19610a73565b5b6000610d2884828501610cef565b91505092915050565b6000610d3c82610b03565b9150610d4783610b03565b9250828203905081811115610d5f57610d5e610c68565b5b92915050565b60008160011c9050919050565b6000808291508390505b6001851115610dbc57808604811115610d9857610d97610c68565b5b6001851615610da75780820291505b8081029050610db585610d65565b9450610d7c565b94509492505050565b600082610dd55760019050610e91565b81610de35760009050610e91565b8160018114610df95760028114610e0357610e32565b6001915050610e91565b60ff841115610e1557610e14610c68565b5b8360020a915084821115610e2c57610e2b610c68565b5b50610e91565b5060208310610133831016604e8410600b8410161715610e675782820a905083811115610e6257610e61610c68565b5b610e91565b610e748484846001610d72565b92509050818404811115610e8b57610e8a610c68565b5b81810290505b9392505050565b6000610ea382610b03565b9150610eae83610b03565b9250610edb7fffffffffffffffffffffffffffffffffffffffffffffffffffffffffffffffff8484610dc5565b905092915050565b6000610eee82610b03565b9150610ef983610b03565b9250828202610f0781610b03565b91508282048414831517610f1e57610f1d610c68565b5b5092915050565b7f4e487b7100000000000000000000000000000000000000000000000000000000600052601260045260246000fd5b6000610f5f82610b03565b9150610f6a83610b03565b925082610f7a57610f79610f25565b5b828204905092915050565b600069ffffffffffffffffffff82169050919050565b610fa481610f85565b8114610faf57600080fd5b50565b600081519050610fc181610f9b565b92915050565b610fd081610bdb565b8114610fdb57600080fd5b50565b600081519050610fed81610fc7565b92915050565b60008151905061100281610c0f565b92915050565b600080600080600060a0868803121561102457611023610a73565b5b600061103288828901610fb2565b955050602061104388828901610fde565b945050604061105488828901610ff3565b935050606061106588828901610ff3565b925050608061107688828901610fb2565b9150509295509295909350565b600081905092915050565b50565b600061109e600083611083565b91506110a98261108e565b600082019050919050565b60006110bf82611091565b9150819050919050565b600082825260208201905092915050565b7f4f776e61626c653a206e6577206f776e657220697320746865207a65726f206160008201527f6464726573730000000000000000000000000000000000000000000000000000602082015250565b60006111366026836110c9565b9150611141826110da565b604082019050919050565b6000602082019050818103600083015261116581611129565b9050919050565b7f4f776e61626c653a2063616c6c6572206973206e6f7420746865206f776e6572600082015250565b60006111a26020836110c9565b91506111ad8261116c565b602082019050919050565b600060208201905081810360008301526111d181611195565b905091905056fea26469706673582212200317ac5d0b412e5ed5d49c0ce1afe20eaeb072850c4b09b7cadfbef06c2e670f64736f6c63430008130033",
  "immutableReferences": {},
  "source": "// SPDX-License-Identifier: MIT\r\npragma solidity ^0.8.19;\r\n\r\nimport \"@openzeppelin/contracts/access/Ownable.sol\";\r\nimport \"@chainlink/contracts/src/v0.8/interfaces/AggregatorV3Interface.sol\";\r\n\r\ncontract Collector is Ownable {\r\n  error noEthDeposited();\r\n  error noEthToWithdraw();\r\n  error noEthSent();\r\n\r\n  uint public constant usdDecimals = 2;\r\n  uint public ownerEthAmountToWithdraw;\r\n\r\n  address public oracleEthUsdPrice;\r\n\r\n  AggregatorV3Interface public ethUsdOracle;\r\n\r\n  mapping(address user => uint256 amount) public userEthDeposit;\r\n\r\n  /**\r\n   * Network: mainnet\r\n   * Aggregator: ETH/USD\r\n   * Address: 0x5f4eC3Df9cbd43714FE2740f5E3616155c5b8419\r\n   */\r\n\r\n  constructor(address clEthUsd) {\r\n    oracleEthUsdPrice = clEthUsd;\r\n    ethUsdOracle = AggregatorV3Interface(oracleEthUsdPrice);\r\n  }\r\n\r\n  function getLastPrice() public view returns (int) {\r\n    (, int price, , , ) = ethUsdOracle.latestRoundData();\r\n    return price;\r\n  }\r\n\r\n  receive() external payable {\r\n    registerUserEthDeposit(msg.sender);\r\n  }\r\n\r\n  function registerUserEthDeposit(address sender) internal {\r\n    if (msg.value == 0) {\r\n      revert noEthSent();\r\n    }\r\n    userEthDeposit[sender] += msg.value;\r\n  }\r\n\r\n  function getPriceDecimals() public view returns (uint) {\r\n    return uint(ethUsdOracle.decimals());\r\n  }\r\n\r\n  function convertEthInUSD(address user) public view returns (uint) {\r\n    uint userUSDDeposit = 0;\r\n    if (userEthDeposit[user] > 0) {\r\n      uint ethPriceDecimals = getPriceDecimals();\r\n      uint ethPrice = uint(getLastPrice());\r\n      uint divDecs = 18 + ethPriceDecimals - usdDecimals;\r\n      userUSDDeposit = (userEthDeposit[user] * ethPrice) / (10 ** divDecs);\r\n    }\r\n    return userUSDDeposit;\r\n  }\r\n\r\n  function convertUSDInEth(uint usdAmount) public view returns (uint) {\r\n    uint convertAmountInEth = 0;\r\n    if (usdAmount > 0) {\r\n      uint ethPriceDecimals = getPriceDecimals();\r\n      uint ethPrice = uint(getLastPrice());\r\n      uint mulDecs = 18 + ethPriceDecimals - usdDecimals;\r\n      convertAmountInEth = (usdAmount * (10 ** mulDecs)) / ethPrice;\r\n    }\r\n    return convertAmountInEth;\r\n  }\r\n\r\n  function userETHWithdraw() external {\r\n    if (userEthDeposit[msg.sender] == 0) {\r\n      revert noEthDeposited();\r\n    }\r\n    uint tempValue = userEthDeposit[msg.sender];\r\n    userEthDeposit[msg.sender] = 0;\r\n\r\n    (bool sent, ) = msg.sender.call{ value: tempValue }(\"\");\r\n    if (!sent) {\r\n      revert noEthSent();\r\n    }\r\n  }\r\n}\r\n",
  "sourcePath": "/home/vincenzotinelli/Mz-Dev-Homework2/contracts/Collector.sol",
  "compiler": {
    "name": "solc",
    "version": "0.8.19+commit.7dd6d404.Emscripten.clang"
  },
  "schemaVersion": "3.4.16",
  "updatedAt": "2024-04-20T15:35:49.331Z",
  "devdoc": {
    "kind": "dev",
    "methods": {
      "owner()": {
        "details": "Returns the address of the current owner."
      },
      "renounceOwnership()": {
        "details": "Leaves the contract without owner. It will not be possible to call `onlyOwner` functions. Can only be called by the current owner. NOTE: Renouncing ownership will leave the contract without an owner, thereby disabling any functionality that is only available to the owner."
      },
      "transferOwnership(address)": {
        "details": "Transfers ownership of the contract to a new account (`newOwner`). Can only be called by the current owner."
      }
    },
    "version": 1
  },
  "userdoc": {
    "kind": "user",
    "methods": {
      "constructor": {
        "notice": "Network: mainnet Aggregator: ETH/USD Address: 0x5f4eC3Df9cbd43714FE2740f5E3616155c5b8419"
      }
    },
    "version": 1
  }
}